:020000040000FA
:060000000A128A11E32F31
:100014000A128A112A200A128A11831603139114D0
:100024000800F0000A128A112A200A128A117008A4
:1000340083120313930008003F3406345B344F34B7
:1000440066346D347D3447347F346734023401348C
:100054008316031311081F39031D312832282A2857
:100064001419352836282A28080083120313871503
:100074000716803083160313940028308312031369
:1000840094008316031391010930930008007E083D
:100094008A007F0882000A128A1149200A128A11F2
:1000A4008000840A04087D0603190034FF0A03193A
:1000B400FE0A4D28F300F201731C612862286628A9
:1000C4007008F1007108F2070310F00D0310F30C2F
:1000D4007308031D6E286F285E28720808008312B7
:1000E40003133E0884008313000A031D7A287B2827
:1000F40082280530F0003E088400700880008D28B6
:100104003E08840006300006031D89288A288D28AD
:100114003E08840080010800831203133E08840013
:100124008313000A031D972898289F280930F0009C
:100134003E08840070088000AA283E0884000A3023
:100144000006031DA628A728AA283E0884008001CB
:100154000800F2000A128A15F7270A128A11D03011
:100164000A128A1113200A128A1172080A128A11B9
:1001740013200A128A1171080A128A1113200A1212
:100184008A110A128A15EE270A128A1108000A1225
:100194008A112A200A128A118316031391150A124E
:1001A4008A112A200A128A11831203131308F000F9
:1001B4007008F1000A128A112A200A128A11831681
:1001C400031391161116710808001030F300730818
:1001D400F400F4147408F3007308F10002300A12F6
:1001E4008A11AB200A128A11F10101300A128A1114
:1001F400AB200A128A11F10100300A128A11AB20D5
:100204000A128A110800F7007708F400043003107A
:10021400F40CFF3E031D092974080F39F500750815
:10022400F8000F307705F4000A30F5007508F00087
:1002340078080A128A115C200A128A117407F600DF
:100244007608F8007808080083120313AA1B2B29E8
:100254002C2938292A08803A763E03183229332972
:1002640038292B080319372938294829AA1B3B297F
:100274003C294C292A08803A7E3E03184229432906
:100284004C292B03031D472948294C29BA01013065
:1002940087005029BA01BA0A023087000800F30027
:1002A4000A128A15F7270A128A11D0300A128A1103
:1002B40013200A128A1173080A128A1113200A12CF
:1002C4008A110A128A110A200A128A11D1300A12DA
:1002D4008A1113200A128A110A128A11C9200A12D9
:1002E4008A11F2007208F4000A128A15EE270A1223
:1002F4008A117408080083120313AB1B8229832913
:10030400B2292B08803A7D3E031889298A29B2290B
:10031400AA1B8D298E29B2292A08803A763E031811
:1003240094299529B2292B080F39F30003300310BF
:10033400F30DFF3E031D99290310730DF400740897
:10034400F5002A080F39F3007308F5047508F30063
:100354007308F10002300A128A11AB200A128A11C2
:10036400080083120313C21BB829B929E8294208DB
:10037400803A7A3E0318BF29C029E829C11BC32942
:10038400C429E8294108803A763E0318CA29CB29B2
:10039400E82942080F39F30003300310F30DFF3E40
:1003A400031DCF290310730DF4007408F5004108F0
:1003B4000F39F3007308F5047508F3007308F100AE
:1003C40001300A128A11AB200A128A110800142A79
:1003D40083120313061CEF29F029EA290618F329CE
:1003E400F429F0298230F300DD30F200F20BF82911
:1003F400F30BF829FD29242A83120313861C032AEC
:10040400042AFE298618072A082A042AF4298312B2
:100414000313061D0E2A0F2A092A0619122A132A63
:100424000F2AF4297108003A0319192A242A70089A
:10043400003A0319EA29013A0319FE29033A031978
:10044400092A242A080083120313AD01FC1F2B2A56
:100454002C2A332AFB09FC09FB0A0319FC0AAD0107
:10046400AD0AFA1F362A372A3C2AF909FA09F90A89
:100474000319FA0A79087A040319412A422A712ACB
:10048400AC01AC0A502A01300310F90DFA0DFF3EFD
:10049400031D462A0130FD007D08AC07FA1F532ACC
:1004A400542A452A7A087C02031D5A2A79087B02B9
:1004B400031C5D2A5E2A642A7908FB027A08031C5D
:1004C400FC03FC0201300310FA0CF90CFF3E031D7F
:1004D400652A0130AC02031D702A712A542A2D08A2
:1004E4000319752A762A7B2AFB09FC09FB0A0319DE
:1004F400FC0A7C08FA007B08F90008008312031345
:100504003908803AFF0080307F02031D8B2A0230B5
:10051400380203188E2A8F2AE12A83120313410812
:10052400203E8400831300088800013085000430D5
:10053400F100E430F000F00B9D2AF10B9D2A00003D
:10054400831203134208203E8400831300088800AA
:10055400023085000430F100E430F000F00BB02AE2
:10056400F10BB02A000083120313430884008313A1
:100574000008203E84000008803E88000430850086
:100584000430F100E430F000F00BC62AF10BC62A67
:100594000000831203134408840083130008203EE0
:1005A400840000088800083085000430F100E4303D
:1005B400F000F00BDB2AF10BDB2A0000E42A8312A3
:1005C400031385010800F601F11FE92AEA2AF12A3A
:1005D400F009F109F00A0319F10AF601F60AF31F0A
:1005E400F42AF52AFE2AF209F309F20A0319F30A96
:1005F4000130F4007408F606F701F801700871047C
:100604000319052B062B3D2BF501F50A142B01309C
:100614000310F00DF10DFF3E031D0A2B0130F40011
:100624007408F507F11F172B182B092B0130031041
:10063400F70DF80DFF3E031D192B71087302031DFE
:10064400252B70087202031C282B292B302B7008D1
:10065400F2027108031CF303F30277140130031050
:10066400F10CF00CFF3E031D312B0130F502031D8C
:100674003C2B3D2B182B76080319412B422B472B7F
:10068400F709F809F70A0319F80A7808F100770856
:10069400F0000800831203132B03031D522B532B6A
:1006A400632B3E0884008313000A031D5A2B5B2B23
:1006B400632BAB010930F0003E0884007008800011
:1006C400C42B02302B06031D682B692B772B3E08A5
:1006D4008400043083130006031D712B722B772BC7
:1006E400AB013E0884008001C42B02302B06031D9D
:1006F4007C2B7D2B882B3E0884008313000A031D6A
:10070400842B852B882BAB01AB0A5C2B2B08031D98
:100714008C2B8D2BA02B3E0884008313000A031D11
:10072400942B952BA02B0230F0007008AB00033003
:10073400F0003E08840070088000C42B2B03031DC6
:10074400A42BA52BB32B3E0884000A308313000688
:10075400031DAD2BAE2BB32B0230F0007008AB00A1
:10076400732B2B08031DB72BB82BC42B3E08840016
:100774000A3083130006031DC02BC12BC42BAB010D
:10078400AB0A732B08000530F0007008F200442C0B
:10079400831203134108203E840083130008880059
:1007A4003C03031DD62BD72BDC2B7203031DDB2B41
:1007B400DC2BE62B013085000730F1007D30F000A2
:1007C400F00BE22BF10BE22B831203134208203EC1
:1007D400840083130008880002303C06031DF32BB9
:1007E400F42BF92B7203031DF82BF92B032C023085
:1007F40085000730F1007D30F000F00BFF2BF10B8A
:10080400FF2B831203134308840083130008203E44
:1008140084000008803E880003303C06031D132C2E
:10082400142C192C7203031D182C192C232C04309E
:1008340085000730F1007D30F000F00B1F2CF10B28
:100844001F2C831203134408840083130008203EE2
:1008540084000008880003303C06031D322C332C2E
:10086400382C7203031D372C382C422C0830850099
:100874000730F1007D30F000F00B3E2CF10B3E2CE4
:100884000130F2027208031D482C492CCA2B0800BF
:100894000A30F4007408F000831203132B080A12C0
:1008A4008A115C200A128A11831203132A07F500A5
:1008B4007508F6009D2CC001C00A0230F4007408CB
:1008C400BF00EF2CC001BF01BF0AEF2CC0015F2C99
:1008D400C0010330F4007408BF00EF2CC0010430E1
:1008E400F4007408BF00EF2CC0010530F400740854
:1008F400BF00EF2CC0010630F4007408BF00EF2CD9
:10090400C0010730F4007408BF00EF2CC0010830A8
:10091400F4007408BF00EF2CC0010930F40074081F
:10092400BF00EF2CC001C00ABF01EF2CC001C00AF8
:10093400BF01BF0AEF2C7608F400F5017508003AF0
:100944000319A52CEF2C7408003A03195D2C013A05
:100954000319642C033A0319682C013A03196A2C0D
:10096400073A0319702C013A0319762C033A031938
:100974007C2C013A0319822C0F3A0319882C013A72
:1009840003198E2C033A0319942C013A0319982C59
:10099400073A03195D2C013A0319642C033A03192D
:1009A400682C013A03196A2C1F3A0319702C013A76
:1009B4000319762C033A03197C2C013A0319822C6F
:1009C400073A0319882C013A03198E2C033A0319A8
:1009D400942C013A0319982CEF2C4030F40074083D
:1009E400C4003F30F4007408C30008000130F00074
:1009F4000030F1000A128A11E9210A128A11013029
:100A040083120313B8070318B90A0030B907390869
:100A1400803AFF0080307F02031D122D033038021C
:100A2400031C152D162D1B2D83120313B801B901B8
:100A3400AB2D8312031338033904031D222D232DF8
:100A4400AB2D9030B1000130B20011300A128A117E
:100A540051210A128A1183120313AE002E08B50025
:100A64000A30F9000030FA003508AE00AF012E0854
:100A7400FB002F08FC000A128A1125220A128A118F
:100A8400790883120313B0003008B3000A30F90068
:100A94000030FA000A30F0000030F1003508AE00F2
:100AA400AF012E08F2002F08F3000A128A11E52282
:100AB4000A128A117108FC007008FB000A128A11DC
:100AC40025220A128A11790883120313B000300810
:100AD400B400A12D3308203E84008313000888004D
:100AE40001308500043083120313AF00E330AE00FD
:100AF400AE0B7A2DAF0B7A2D7F2D8312031334089E
:100B04000319852D862D992D3408203E84008313E6
:100B14000008880002308500043083120313AF00FC
:100B2400E330AE00AE0B942DAF0B942D992DFF3016
:100B340083120313B1070318B20AFF30B207310856
:100B44003204031DA62DA72D6C2D4108AE002E08DE
:100B5400BD00080001308316031386008801850157
:100B64001F08F03907389F00071087100A128A11EE
:100B740037200A128A112B3083120313B600360869
:100B8400C4002A30B6003608C300850186018701F7
:100B94008801043083120313B700E330B600B60BA8
:100BA400D12DB70BD12DD62D83120313861CDB2D2B
:100BB400DC2DE72D3C08031DE02DE12DE72D0A1265
:100BC4008A11F8240A128A111D2E061DEA2DEB2D16
:100BD400072E3C08031DEF2DF02D072E0230F000E8
:100BE4000030F1000A128A11E9210A128A11023036
:100BF40083120313380639040319012E022E042E1E
:100C0400BB091D2EB801B9011D2E06180A2E0B2E84
:100C1400182E86180E2E0F2E132E061D122E132E8E
:100C24001D2E3C080319172E182E1D2E0A128A1188
:100C340061260A128A11831203133B08031D232E13
:100C4400242E2E2E2B30B6003608C4002A30B600CF
:100C54003608C3008701382E0A128A1126210A1287
:100C64008A110A128A114A240A128A11831203135E
:100C74003C08031D3E2E3F2E582E38033904031D15
:100C8400442E452E4D2E3D08410603194A2E4B2E67
:100C94004D2EB801B9010A128A111E270A128A11AF
:100CA4000A128A1180220A128A11CB2D0A128A1181
:100CB400C5230A128A11CB2D0A128A110028023088
:100CC4008312031338063904031D692E6A2E772E06
:100CD4000030F000F1000A128A11E9210A128A1187
:100CE40083120313B801B9011D2F061C7A2E7B2E23
:100CF400B82E0030F000F1000A128A11E9210A121C
:100D04008A110130F600760883120313BC07A52E5E
:100D14004130F6007608BE001D2F4230F6007608FA
:100D2400BE001D2F2A30F6007608BE001D2FBC0120
:100D34000A128A117D210A128A110A128A11B32118
:100D44000A128A111D2F3C08F600F7017708003AB1
:100D54000319AD2E992E7608013A03198A2E033A07
:100D640003198F2E013A0319942E992E861CBB2E3B
:100D7400BC2EF42E0130F0000030F1000A128A116A
:100D8400E9210A128A110130F600831203133E0886
:100D94008400760883138007E12E0A128A118E20BC
:100DA4000A128A111D2F0A128A1171200A128A113D
:100DB4001D2F0A128A114C230A128A111D2F3C0876
:100DC400F600F7017708003A0319E92E1D2F76087B
:100DD400013A0319CF2E033A0319D52E013A031908
:100DE400DB2E1D2F061DF72EF82E1D2F0230F000CE
:100DF4000030F1000A128A11E9210A128A11FF3027
:100E0400F600831203133E088400760883138007D8
:100E14003C08F600F7017708003A0319122F1D2F3A
:100E24007608013A0319CF2E033A0319D52E013A55
:100E34000319DB2E1D2F080001300A128A115121DB
:100E44000A128A110A128A1105210A128A118312BE
:100E54000313AE002E08B1000A30F9000030FA0086
:100E64003108AE00AF012E08FB002F08FC000A1267
:100E74008A1125220A128A11790883120313B000F9
:100E84003008C1000A30F9000030FA000A30F000DE
:100E94000030F1003108AE00AF012E08F2002F0837
:100EA400F3000A128A11E5220A128A117108FC0061
:100EB4007008FB000A128A1125220A128A11790885
:100EC40083120313B0003008C20002300A128A11E0
:100ED40051210A128A110A128A1105210A128A1151
:100EE40083120313AE002E08B2000A30F90000305A
:100EF400FA003208AE00AF012E08FB002F08FC00F8
:100F04000A128A1125220A128A11790883120313FC
:100F1400B0003008AA000A30F9000030FA000A30A4
:100F2400F0000030F1003208AE00AF012E08F200EC
:100F34002F08F3000A128A11E5220A128A11710895
:100F4400FC007008FB000A128A1125220A128A1179
:100F5400790883120313B0003008AB00AB1BB32F26
:100F6400B42FDD2F2B08803A7D3E0318BA2FBB2FF8
:100F7400DD2FAA1BBE2FBF2FDD2F2A08803A763E15
:100F84000318C52FC62FDD2FC21BC92FCA2FDD2F73
:100F94004208803A7A3E0318D02FD12FDD2FC11B8F
:100FA400D42FD52FDD2F4108803A763E0318DB2F4E
:100FB400DC2FDD2FE22F0A128A11E7200A128A1190
:100FC400080083132C30FD000030FE001E30FF00AB
:100FD400203084000A128A114D200A128A11B801A5
:100FE400B901BA01BB01BC01BD01BE01BF01C00111
:0C0FF400C101C20183010A128A11AC2D58
:101FDC000A128A112A200A128A1583160313111564
:101FEC0008000A128A112A200A128A158316031372
:041FFC0011140800B4
:02400E00393F38
:00000001FF
