:020000040000FA
:060000000A128A11E32F31
:1000E8000A128A11A6200A128A11831603131115FF
:1000F80008000A128A11A6200A128A11831603130D
:10010800111408000A128A11A6200A128A118316ED
:10011800031391140800F0000A128A11A6200A128B
:100128008A11700883120313930008003F340634C1
:100138005B344F3466346D347D3447347F346734F0
:10014800023401348316031311081F39031DAD2827
:10015800AE28A6281419B128B228A62808008312A8
:10016800031387150716803083160313940028306D
:10017800831203139400831603139101093093002B
:1001880008007E088A007F0882000A128A11C520AA
:100198000A128A118000840A04087D0603190034B3
:1001A800FF0A0319FE0AC928F300F201731CDD28AF
:1001B800DE28E2287008F1007108F2070310F00D3C
:1001C8000310F30C7308031DEA28EB28DA287208D9
:1001D8000800831203133E0884008313000A031DDA
:1001E800F628F728FE280530F0003E08840070083D
:1001F800800009293E08840006300006031D0529F1
:10020800062909293E088400800108008312031387
:100218003E0884008313000A031D132914291B298F
:100228000930F0003E0884007008800026293E0846
:1002380084000A300006031D2229232926293E08A6
:10024800840080010800F2000A128A117D200A1237
:100258008A11D0300A128A118F200A128A11720864
:100268000A128A118F200A128A1171080A128A1139
:100278008F200A128A110A128A1174200A128A110E
:1002880008000A128A11A6200A128A11831603137B
:1002980091150A128A11A6200A128A1183120313D1
:1002A8001308F0007008F1000A128A11A6200A1239
:1002B8008A11831603139116111671080800831208
:1002C80003132B080F39F30003300310F30DFF3E1F
:1002D800031D69290310730DF4007408F5002A083A
:1002E8000F39F3007308F5047508F3007308F1007B
:1002F80002300A128A1127210A128A110800831271
:10030800031342080F39F30003300310F30DFF3EC7
:10031800031D89290310730DF4007408F5004108C2
:100328000F39F3007308F5047508F3007308F1003A
:1003380001300A128A1127210A128A110800F700CF
:100348007708F40004300310F40CFF3E031DA729BE
:1003580074080F39F5007508F8000F307705F400B8
:100368000A30F5007508F00078080A128A11D820BA
:100378000A128A117407F6007608F800780808004F
:1003880083120313AA1BC929CA29D6292A08803A25
:10039800763E0318D029D129D6292B080319D52947
:1003A800D629E629AA1BD929DA29EA292A08803A6E
:1003B8007E3E0318E029E129EA292B03031DE529DC
:1003C800E629EA29BA0101308700EE29BA01BA0AFA
:1003D800023087000800F3000A128A117D200A12F1
:1003E8008A11D0300A128A118F200A128A117308D2
:1003F8000A128A118F200A128A110A128A1186207B
:100408000A128A11D1300A128A118F200A128A110F
:100418000A128A1145210A128A11F2007208F400A0
:100428000A128A1174200A128A1174080800462ACE
:1004380083120313061C212A222A1C2A0618252A9D
:10044800262A222A8230F300DD30F200F20B2A2A13
:10045800F30B2A2A2F2A562A83120313861C352ABD
:10046800362A302A8618392A3A2A362A262A831220
:100478000313061D402A412A3B2A0619442A452A05
:10048800412A262A7108003A03194B2A562A70086D
:10049800003A03191C2A013A0319302A033A0319AE
:1004A8003B2A562A080083120313AD01FC1F5D2A5C
:1004B8005E2A652AFB09FC09FB0A0319FC0AAD013F
:1004C800AD0AFA1F682A692A6E2AF909FA09F90A8F
:1004D8000319FA0A79087A040319732A742AA32AD1
:1004E800AC01AC0A822A01300310F90DFA0DFF3E67
:1004F800031D782A0130FD007D08AC07FA1F852A04
:10050800862A772A7A087C02031D8C2A79087B02BE
:10051800031C8F2A902A962A7908FB027A08031C62
:10052800FC03FC0201300310FA0CF90CFF3E031D1A
:10053800972A0130AC02031DA22AA32A862A2D0875
:100548000319A72AA82AAD2AFB09FC09FB0A0319E3
:10055800FC0A7C08FA007B08F900080083120313E0
:100568003908803AFF0080307F02031DBD2A02301F
:1005780038020318C02AC12A132B83120313410817
:10058800203E840083130008880001308500043071
:10059800F100E430F000F00BCF2AF10BCF2A000075
:1005A800831203134208203E840083130008880046
:1005B800023085000430F100E430F000F00BE22A4C
:1005C800F10BE22A0000831203134308840083130B
:1005D8000008203E84000008803E88000430850022
:1005E8000430F100E430F000F00BF82AF10BF82A9F
:1005F8000000831203134408840083130008203E7C
:10060800840000088800083085000430F100E430D8
:10061800F000F00B0D2BF10B0D2B0000162B8312A5
:10062800031385010800F601F11F1B2B1C2B232B3C
:10063800F009F109F00A0319F10AF601F60AF31FA5
:10064800262B272B302BF209F309F20A0319F30A98
:100658000130F4007408F606F701F8017008710417
:100668000319372B382B6F2BF501F50A462B013070
:100678000310F00DF10DFF3E031D3C2B0130F4007B
:100688007408F507F11F492B4A2B3B2B0130031047
:10069800F70DF80DFF3E031D4B2B71087302031D68
:1006A800572B70087202031C5A2B5B2B622B7008A5
:1006B800F2027108031CF303F302771401300310EC
:1006C800F10CF00CFF3E031D632B0130F502031DF6
:1006D8006E2B6F2B4A2B76080319732B742B792BEF
:1006E800F709F809F70A0319F80A7808F1007708F2
:1006F800F0000800831203132B03031D842B852BA2
:10070800952B3E0884008313000A031D8C2B8D2B28
:10071800952BAB010930F0003E088400700880007A
:10072800F62B02302B06031D9A2B9B2BA92B3E0878
:100738008400043083130006031DA32BA42BA92BCC
:10074800AB013E0884008001F62B02302B06031D06
:10075800AE2BAF2BBA2B3E0884008313000A031D6F
:10076800B62BB72BBA2BAB01AB0A8E2B2B08031D6C
:10077800BE2BBF2BD22B3E0884008313000A031D17
:10078800C62BC72BD22B0230F0007008AB00033009
:10079800F0003E08840070088000F62B2B03031D30
:1007A800D62BD72BE52B3E0884000A30831300068E
:1007B800031DDF2BE02BE52B0230F0007008AB00A7
:1007C800A52B2B08031DE92BEA2BF62B3E088400EA
:1007D8000A3083130006031DF22BF32BF62BAB0113
:1007E800AB0AA52B08000530F0007008F200762C43
:1007F800831203134108203E8400831300088800F5
:100808003C03031D082C092C0E2C7203031D0D2C10
:100818000E2C182C013085000730F1007D30F000D7
:10082800F00B142CF10B142C831203134208203EF6
:10083800840083130008880002303C06031D252C21
:10084800262C2B2C7203031D2A2C2B2C352C023022
:1008580085000730F1007D30F000F00B312CF10BF2
:10086800312C831203134308840083130008203EAD
:1008780084000008803E880003303C06031D452C98
:10088800462C4B2C7203031D4A2C4B2C552C043040
:1008980085000730F1007D30F000F00B512CF10B92
:1008A800512C831203134408840083130008203E4C
:1008B80084000008880003303C06031D642C652C66
:1008C8006A2C7203031D692C6A2C742C083085006D
:1008D8000730F1007D30F000F00B702CF10B702C1C
:1008E8000130F2027208031D7A2C7B2CFC2B0800C5
:1008F80001300A128A11EF210A128A110A128A118A
:10090800A3210A128A1183120313AE002E08B10024
:100918000A30F9000030FA003108AE00AF012E08A5
:10092800FB002F08FC000A128A1157220A128A11AA
:10093800790883120313B0003008C1000A30F900A7
:100948000030FA000A30F0000030F1003108AE0043
:10095800AF012E08F2002F08F3000A128A1117239C
:100968000A128A117108FC007008FB000A128A1129
:1009780057220A128A11790883120313B00030082B
:10098800C20002300A128A11EF210A128A110A12D1
:100998008A11A3210A128A1183120313AE002E08AA
:1009A800B2000A30F9000030FA003208AE00AF0198
:1009B8002E08FB002F08FC000A128A1157220A127F
:1009C8008A11790883120313B0003008AA000A308C
:1009D800F9000030FA000A30F0000030F100320867
:1009E800AE00AF012E08F2002F08F3000A128A1198
:1009F80017230A128A117108FC007008FB000A12FA
:100A08008A1157220A128A11790883120313B00037
:100A18003008AB0008000A30F4007408F0008312B4
:100A280003132B080A128A11D8200A128A1183127A
:100A380003132A07F5007508F600622DC001C00AE5
:100A48000230F4007408BF00B42DC001BF01BF0A12
:100A5800B42DC001242DC0010330F4007408BF0078
:100A6800B42DC0010430F4007408BF00B42DC001D7
:100A78000530F4007408BF00B42DC0010630F4003E
:100A88007408BF00B42DC0010730F4007408BF001B
:100A9800B42DC0010830F4007408BF00B42DC001A3
:100AA8000930F4007408BF00B42DC001C00ABF01AA
:100AB800B42DC001C00ABF01BF0AB42D7608F400E6
:100AC800F5017508003A03196A2DB42D7408003A27
:100AD8000319222D013A0319292D033A03192D2D43
:100AE800013A03192F2D073A0319352D013A031935
:100AF8003B2D033A0319412D013A0319472D0F3AAB
:100B080003194D2D013A0319532D033A0319592D91
:100B1800013A03195D2D073A0319222D013A0319E9
:100B2800292D033A03192D2D013A03192F2D1F3AA8
:100B38000319352D013A03193B2D033A0319412DA9
:100B4800013A0319472D073A03194D2D013A0319A4
:100B5800532D033A0319592D013A03195D2DB42D6C
:100B68004030F4007408C4003F30F4007408C30037
:100B780008000130F0000030F1000A128A111B222F
:100B88000A128A11013083120313B8070318B90A2D
:100B98000030B9073908803AFF0080307F02031D12
:100BA800D72D03303802031CDA2DDB2DE02D8312FC
:100BB8000313B801B901702E8312031338033904E3
:100BC800031DE72DE82D702E9030B1000130B200E2
:100BD80011300A128A11EF210A128A1183120313A3
:100BE800AE002E08B5000A30F9000030FA003508CA
:100BF800AE00AF012E08FB002F08FC000A128A1174
:100C080057220A128A11790883120313B000300898
:100C1800B3000A30F9000030FA000A30F000003062
:100C2800F1003508AE00AF012E08F2002F08F300DE
:100C38000A128A1117230A128A117108FC00700817
:100C4800FB000A128A1157220A128A1179088312A4
:100C58000313B0003008B400662E3308203E840029
:100C680083130008880001308500043083120313C1
:100C7800AF00E330AE00AE0B3F2EAF0B3F2E442E3D
:100C880083120313340803194A2E4B2E5E2E3408A0
:100C9800203E840083130008880002308500043059
:100CA80083120313AF00E330AE00AE0B592EAF0B27
:100CB800592E5E2EFF3083120313B1070318B20AB0
:100CC800FF30B20731083204031D6B2E6C2E312E13
:100CD8004108AE002E08BD0008000130831603133A
:100CE8008600880185011F08F03907389F00071022
:100CF80087100A128A11B3200A128A112B30831224
:100D08000313B6003608C4002A30B6003608C300FC
:100D18008501860187018801043083120313B70017
:100D2800E330B600B60B962EB70B962E9B2E831289
:100D38000313861CA02EA12EAC2E3C08031DA52E45
:100D4800A62EAC2E0A128A11BD250A128A11E22E8D
:100D5800061DAF2EB02ECC2E3C08031DB42EB52E8A
:100D6800CC2E0230F0000030F1000A128A111B224A
:100D78000A128A1102308312031338063904031940
:100D8800C62EC72EC92EBB09E22EB801B901E22E24
:100D98000618CF2ED02EDD2E8618D32ED42ED82E80
:100DA800061DD72ED82EE22E3C080319DC2EDD2E88
:100DB800E22E0A128A1126270A128A1183120313B5
:100DC8003B08031DE82EE92EF32E2B30B60036081B
:100DD800C4002A30B6003608C3008701FD2E0A1267
:100DE8008A11C4210A128A110A128A110F250A12BD
:100DF8008A11831203133C08031D032F042F1D2F90
:100E080038033904031D092F0A2F122F3D08410604
:100E180003190F2F102F122FB801B9010A128A11C6
:100E28007C240A128A110A128A11B2220A128A1121
:100E3800902E0A128A11F7230A128A11902E0A128A
:100E48008A11002802308312031338063904031D5F
:100E58002E2F2F2F3C2F0030F000F1000A128A119C
:100E68001B220A128A1183120313B801B901E22F57
:100E7800061C3F2F402F7D2F0030F000F1000A1292
:100E88008A111B220A128A110130F6007608831291
:100E98000313BC076A2F4130F6007608BE00E22F24
:100EA8004230F6007608BE00E22F2A30F6007608B7
:100EB800BE00E22FBC010A128A1163210A128A11AC
:100EC8000A128A1183210A128A11E22F3C08F600BD
:100ED800F7017708003A0319722F5E2F7608013A56
:100EE80003194F2F033A0319542F013A0319592FA5
:100EF8005E2F861C802F812FB92F0130F000003023
:100F0800F1000A128A111B220A128A110130F60016
:100F1800831203133E088400760883138007A62FE4
:100F28000A128A110A210A128A11E22F0A128A1158
:100F3800ED200A128A11E22F0A128A117E230A1260
:100F48008A11E22F3C08F600F7017708003A0319E6
:100F5800AE2FE22F7608013A0319942F033A0319AA
:100F68009A2F013A0319A02FE22F061DBC2FBD2F7F
:100F7800E22F0230F0000030F1000A128A111B2221
:100F88000A128A11FF30F600831203133E08840008
:100F98007608831380073C08F600F7017708003AC3
:100FA8000319D72FE22F7608013A0319942F033A31
:100FB80003199A2F013A0319A02FE22F080083136F
:100FC8002C30FD000030FE009A30FF0020308400F5
:100FD8000A128A11C9200A128A11B801B901BA0184
:100FE800BB01BC01BD01BE01BF01C001C101C201FD
:080FF80083010A128A11712E17
:02400E00393F38
:00000001FF
